{
  "contractName": "BookLibrary",
  "abi": [
    {
      "anonymous": false,
      "inputs": [
        {
          "indexed": true,
          "internalType": "address",
          "name": "previousOwner",
          "type": "address"
        },
        {
          "indexed": true,
          "internalType": "address",
          "name": "newOwner",
          "type": "address"
        }
      ],
      "name": "OwnershipTransferred",
      "type": "event"
    },
    {
      "inputs": [
        {
          "internalType": "uint256",
          "name": "",
          "type": "uint256"
        }
      ],
      "name": "booksStored",
      "outputs": [
        {
          "internalType": "string",
          "name": "id",
          "type": "string"
        },
        {
          "internalType": "uint8",
          "name": "count",
          "type": "uint8"
        },
        {
          "internalType": "bool",
          "name": "exists",
          "type": "bool"
        }
      ],
      "stateMutability": "view",
      "type": "function"
    },
    {
      "inputs": [],
      "name": "owner",
      "outputs": [
        {
          "internalType": "address",
          "name": "",
          "type": "address"
        }
      ],
      "stateMutability": "view",
      "type": "function"
    },
    {
      "inputs": [],
      "name": "renounceOwnership",
      "outputs": [],
      "stateMutability": "nonpayable",
      "type": "function"
    },
    {
      "inputs": [
        {
          "internalType": "address",
          "name": "newOwner",
          "type": "address"
        }
      ],
      "name": "transferOwnership",
      "outputs": [],
      "stateMutability": "nonpayable",
      "type": "function"
    },
    {
      "inputs": [],
      "name": "getStoredBooks",
      "outputs": [
        {
          "components": [
            {
              "internalType": "string",
              "name": "id",
              "type": "string"
            },
            {
              "internalType": "uint8",
              "name": "count",
              "type": "uint8"
            },
            {
              "internalType": "bool",
              "name": "exists",
              "type": "bool"
            },
            {
              "internalType": "address[]",
              "name": "borrowers",
              "type": "address[]"
            }
          ],
          "internalType": "struct BookLibrary.Book[]",
          "name": "",
          "type": "tuple[]"
        }
      ],
      "stateMutability": "view",
      "type": "function"
    },
    {
      "inputs": [
        {
          "internalType": "string",
          "name": "id",
          "type": "string"
        },
        {
          "internalType": "uint8",
          "name": "count",
          "type": "uint8"
        }
      ],
      "name": "addBook",
      "outputs": [],
      "stateMutability": "nonpayable",
      "type": "function"
    },
    {
      "inputs": [
        {
          "internalType": "string",
          "name": "id",
          "type": "string"
        }
      ],
      "name": "borrowBook",
      "outputs": [],
      "stateMutability": "nonpayable",
      "type": "function"
    },
    {
      "inputs": [
        {
          "internalType": "string",
          "name": "id",
          "type": "string"
        },
        {
          "internalType": "uint8",
          "name": "count",
          "type": "uint8"
        }
      ],
      "name": "returnBook",
      "outputs": [],
      "stateMutability": "nonpayable",
      "type": "function"
    },
    {
      "inputs": [
        {
          "internalType": "string",
          "name": "id",
          "type": "string"
        }
      ],
      "name": "getBorrowers",
      "outputs": [
        {
          "internalType": "address[]",
          "name": "",
          "type": "address[]"
        }
      ],
      "stateMutability": "view",
      "type": "function"
    }
  ],
  "bytecode": "0x6080604052600060015534801561001557600080fd5b5060006100266100c960201b60201c565b9050806000806101000a81548173ffffffffffffffffffffffffffffffffffffffff021916908373ffffffffffffffffffffffffffffffffffffffff1602179055508073ffffffffffffffffffffffffffffffffffffffff16600073ffffffffffffffffffffffffffffffffffffffff167f8be0079c531659141344cd1fd0a4f28419497f9722a3daafe3b4186f6b6457e060405160405180910390a3506100d1565b600033905090565b6118d3806100e06000396000f3fe608060405234801561001057600080fd5b50600436106100935760003560e01c806394949eee1161006657806394949eee14610122578063a63ac38e1461013e578063b47153521461015a578063ced96fe314610178578063f2fde38b1461019457610093565b80632588b13414610098578063582bcda5146100ca578063715018a6146100fa5780638da5cb5b14610104575b600080fd5b6100b260048036038101906100ad9190611211565b6101b0565b6040516100c193929190611619565b60405180910390f35b6100e460048036038101906100df919061117c565b61029c565b6040516100f191906115d5565b60405180910390f35b610102610383565b005b61010c6104f0565b60405161011991906115ba565b60405180910390f35b61013c600480360381019061013791906111bd565b610519565b005b610158600480360381019061015391906111bd565b610696565b005b61016261095f565b60405161016f91906115f7565b60405180910390f35b610192600480360381019061018d919061117c565b610b26565b005b6101ae60048036038101906101a99190611153565b610d64565b005b600281815481106101c057600080fd5b9060005260206000209060030201600091509050806000018054600181600116156101000203166002900480601f01602080910402602001604051908101604052809291908181526020018280546001816001161561010002031660029004801561026c5780601f106102415761010080835404028352916020019161026c565b820191906000526020600020905b81548152906001019060200180831161024f57829003601f168201915b5050505050908060010160009054906101000a900460ff16908060010160019054906101000a900460ff16905083565b60606003826040516102ae919061158c565b908152602001604051809103902060010160019054906101000a900460ff166102d657600080fd5b6003826040516102e6919061158c565b908152602001604051809103902060020180548060200260200160405190810160405280929190818152602001828054801561037757602002820191906000526020600020905b8160009054906101000a900473ffffffffffffffffffffffffffffffffffffffff1673ffffffffffffffffffffffffffffffffffffffff168152602001906001019080831161032d575b50505050509050919050565b61038b610f56565b73ffffffffffffffffffffffffffffffffffffffff166103a96104f0565b73ffffffffffffffffffffffffffffffffffffffff1614610432576040517f08c379a00000000000000000000000000000000000000000000000000000000081526004018080602001828103825260208152602001807f4f776e61626c653a2063616c6c6572206973206e6f7420746865206f776e657281525060200191505060405180910390fd5b600073ffffffffffffffffffffffffffffffffffffffff1660008054906101000a900473ffffffffffffffffffffffffffffffffffffffff1673ffffffffffffffffffffffffffffffffffffffff167f8be0079c531659141344cd1fd0a4f28419497f9722a3daafe3b4186f6b6457e060405160405180910390a360008060006101000a81548173ffffffffffffffffffffffffffffffffffffffff021916908373ffffffffffffffffffffffffffffffffffffffff160217905550565b60008060009054906101000a900473ffffffffffffffffffffffffffffffffffffffff16905090565b600382604051610529919061158c565b908152602001604051809103902060010160019054906101000a900460ff1661055157600080fd5b80600383604051610562919061158c565b908152602001604051809103902060010160008282829054906101000a900460ff160192506101000a81548160ff021916908360ff16021790555060005b60028054905081101561069157826040516020016105be919061158c565b60405160208183030381529060405280519060200120600282815481106105e157fe5b906000526020600020906003020160000160405160200161060291906115a3565b6040516020818303038152906040528051906020012014156106845760038360405161062e919061158c565b908152602001604051809103902060010160009054906101000a900460ff166002828154811061065a57fe5b906000526020600020906003020160010160006101000a81548160ff021916908360ff1602179055505b80806001019150506105a0565b505050565b61069e610f56565b73ffffffffffffffffffffffffffffffffffffffff166106bc6104f0565b73ffffffffffffffffffffffffffffffffffffffff1614610745576040517f08c379a00000000000000000000000000000000000000000000000000000000081526004018080602001828103825260208152602001807f4f776e61626c653a2063616c6c6572206973206e6f7420746865206f776e657281525060200191505060405180910390fd5b6000600383604051610757919061158c565b908152602001604051809103902060010160019054906101000a900460ff169050806108fd576060610787610f5e565b60405180608001604052808681526020018560ff168152602001600115158152602001838152509050600281908060018154018082558091505060019003906000526020600020906003020160009091909190915060008201518160000190805190602001906107f8929190610f8b565b5060208201518160010160006101000a81548160ff021916908360ff16021790555060408201518160010160016101000a81548160ff0219169083151502179055506060820151816002019080519060200190610856929190611019565b5050508060038660405161086a919061158c565b90815260200160405180910390206000820151816000019080519060200190610894929190610f8b565b5060208201518160010160006101000a81548160ff021916908360ff16021790555060408201518160010160016101000a81548160ff02191690831515021790555060608201518160020190805190602001906108f2929190611019565b50905050505061094a565b8160038460405161090e919061158c565b908152602001604051809103902060010160008282829054906101000a900460ff160192506101000a81548160ff021916908360ff1602179055505b60018060008282540192505081905550505050565b60606002805480602002602001604051908101604052809291908181526020016000905b82821015610b1d5783829060005260206000209060030201604051806080016040529081600082018054600181600116156101000203166002900480601f016020809104026020016040519081016040528092919081815260200182805460018160011615610100020316600290048015610a3f5780601f10610a1457610100808354040283529160200191610a3f565b820191906000526020600020905b815481529060010190602001808311610a2257829003601f168201915b505050505081526020016001820160009054906101000a900460ff1660ff1660ff1681526020016001820160019054906101000a900460ff1615151515815260200160028201805480602002602001604051908101604052809291908181526020018280548015610b0557602002820191906000526020600020905b8160009054906101000a900473ffffffffffffffffffffffffffffffffffffffff1673ffffffffffffffffffffffffffffffffffffffff1681526020019060010190808311610abb575b50505050508152505081526020019060010190610983565b50505050905090565b600381604051610b36919061158c565b908152602001604051809103902060010160019054906101000a900460ff16610b5e57600080fd5b6000600382604051610b70919061158c565b908152602001604051809103902060010160009054906101000a900460ff1660ff161415610b9d57600080fd5b6001600382604051610baf919061158c565b908152602001604051809103902060010160008282829054906101000a900460ff160392506101000a81548160ff021916908360ff160217905550600381604051610bfa919061158c565b9081526020016040518091039020600201339080600181540180825580915050600190039060005260206000200160009091909190916101000a81548173ffffffffffffffffffffffffffffffffffffffff021916908373ffffffffffffffffffffffffffffffffffffffff16021790555060005b600280549050811015610d605781604051602001610c8d919061158c565b6040516020818303038152906040528051906020012060028281548110610cb057fe5b9060005260206000209060030201600001604051602001610cd191906115a3565b604051602081830303815290604052805190602001201415610d5357600382604051610cfd919061158c565b908152602001604051809103902060010160009054906101000a900460ff1660028281548110610d2957fe5b906000526020600020906003020160010160006101000a81548160ff021916908360ff1602179055505b8080600101915050610c6f565b5050565b610d6c610f56565b73ffffffffffffffffffffffffffffffffffffffff16610d8a6104f0565b73ffffffffffffffffffffffffffffffffffffffff1614610e13576040517f08c379a00000000000000000000000000000000000000000000000000000000081526004018080602001828103825260208152602001807f4f776e61626c653a2063616c6c6572206973206e6f7420746865206f776e657281525060200191505060405180910390fd5b600073ffffffffffffffffffffffffffffffffffffffff168173ffffffffffffffffffffffffffffffffffffffff161415610e99576040517f08c379a00000000000000000000000000000000000000000000000000000000081526004018080602001828103825260268152602001806118786026913960400191505060405180910390fd5b8073ffffffffffffffffffffffffffffffffffffffff1660008054906101000a900473ffffffffffffffffffffffffffffffffffffffff1673ffffffffffffffffffffffffffffffffffffffff167f8be0079c531659141344cd1fd0a4f28419497f9722a3daafe3b4186f6b6457e060405160405180910390a3806000806101000a81548173ffffffffffffffffffffffffffffffffffffffff021916908373ffffffffffffffffffffffffffffffffffffffff16021790555050565b600033905090565b604051806080016040528060608152602001600060ff168152602001600015158152602001606081525090565b828054600181600116156101000203166002900490600052602060002090601f016020900481019282610fc15760008555611008565b82601f10610fda57805160ff1916838001178555611008565b82800160010185558215611008579182015b82811115611007578251825591602001919060010190610fec565b5b50905061101591906110a3565b5090565b828054828255906000526020600020908101928215611092579160200282015b828111156110915782518260006101000a81548173ffffffffffffffffffffffffffffffffffffffff021916908373ffffffffffffffffffffffffffffffffffffffff16021790555091602001919060010190611039565b5b50905061109f91906110a3565b5090565b5b808211156110bc5760008160009055506001016110a4565b5090565b6000813590506110cf81611832565b92915050565b600082601f8301126110e657600080fd5b81356110f96110f482611688565b611657565b9150808252602083016020830185838301111561111557600080fd5b6111208382846117dd565b50505092915050565b60008135905061113881611849565b92915050565b60008135905061114d81611860565b92915050565b60006020828403121561116557600080fd5b6000611173848285016110c0565b91505092915050565b60006020828403121561118e57600080fd5b600082013567ffffffffffffffff8111156111a857600080fd5b6111b4848285016110d5565b91505092915050565b600080604083850312156111d057600080fd5b600083013567ffffffffffffffff8111156111ea57600080fd5b6111f6858286016110d5565b92505060206112078582860161113e565b9150509250929050565b60006020828403121561122357600080fd5b600061123184828501611129565b91505092915050565b60006112468383611266565b60208301905092915050565b600061125e8383611504565b905092915050565b61126f81611788565b82525050565b61127e81611788565b82525050565b600061128f826116ed565b6112998185611728565b93506112a4836116b8565b8060005b838110156112d55781516112bc888261123a565b97506112c78361170e565b9250506001810190506112a8565b5085935050505092915050565b60006112ed826116ed565b6112f78185611739565b9350611302836116b8565b8060005b8381101561133357815161131a888261123a565b97506113258361170e565b925050600181019050611306565b5085935050505092915050565b600061134b826116f8565b611355818561174a565b935083602082028501611367856116c8565b8060005b858110156113a357848403895281516113848582611252565b945061138f8361171b565b925060208a0199505060018101905061136b565b50829750879550505050505092915050565b6113be8161179a565b82525050565b6113cd8161179a565b82525050565b60006113de82611703565b6113e8818561175b565b93506113f88185602086016117ec565b61140181611821565b840191505092915050565b600061141782611703565b611421818561176c565b93506114318185602086016117ec565b61143a81611821565b840191505092915050565b600061145082611703565b61145a818561177d565b935061146a8185602086016117ec565b80840191505092915050565b60008154600181166000811461149357600181146114b8576114fc565b607f60028304166114a4818761177d565b955060ff19831686528086019350506114fc565b600282046114c6818761177d565b95506114d1856116d8565b60005b828110156114f3578154818901526001820191506020810190506114d4565b82880195505050505b505092915050565b6000608083016000830151848203600086015261152182826113d3565b9150506020830151611536602086018261156e565b50604083015161154960408601826113b5565b50606083015184820360608601526115618282611284565b9150508091505092915050565b611577816117d0565b82525050565b611586816117d0565b82525050565b60006115988284611445565b915081905092915050565b60006115af8284611476565b915081905092915050565b60006020820190506115cf6000830184611275565b92915050565b600060208201905081810360008301526115ef81846112e2565b905092915050565b600060208201905081810360008301526116118184611340565b905092915050565b60006060820190508181036000830152611633818661140c565b9050611642602083018561157d565b61164f60408301846113c4565b949350505050565b6000604051905081810181811067ffffffffffffffff8211171561167e5761167d61181f565b5b8060405250919050565b600067ffffffffffffffff8211156116a3576116a261181f565b5b601f19601f8301169050602081019050919050565b6000819050602082019050919050565b6000819050602082019050919050565b60008190508160005260206000209050919050565b600081519050919050565b600081519050919050565b600081519050919050565b6000602082019050919050565b6000602082019050919050565b600082825260208201905092915050565b600082825260208201905092915050565b600082825260208201905092915050565b600082825260208201905092915050565b600082825260208201905092915050565b600081905092915050565b6000611793826117a6565b9050919050565b60008115159050919050565b600073ffffffffffffffffffffffffffffffffffffffff82169050919050565b6000819050919050565b600060ff82169050919050565b82818337600083830152505050565b60005b8381101561180a5780820151818401526020810190506117ef565b83811115611819576000848401525b50505050565bfe5b6000601f19601f8301169050919050565b61183b81611788565b811461184657600080fd5b50565b611852816117c6565b811461185d57600080fd5b50565b611869816117d0565b811461187457600080fd5b5056fe4f776e61626c653a206e6577206f776e657220697320746865207a65726f2061646472657373a2646970667358221220aa767b28098e0332a8cf002c3b13994e1015f2d7ecb91b45b816d8bb906cb46564736f6c63430007050033",
  "source": "// SPDX-License-Identifier: UNLICENSED\npragma solidity >=0.7.0;\npragma abicoder v2;\nimport \"@openzeppelin/contracts/access/Ownable.sol\";\n\ncontract BookLibrary is Ownable {\n\n  struct Book {\n      string id;\n      uint8 count;\n      bool exists;\n      address[] borrowers;\n  }\n\n  uint256 booksCount = 0;\n\n  Book[] public booksStored;\n  mapping (string => Book) private books;\n\n  function getStoredBooks () public view returns (Book[] memory) {\n      return booksStored;\n  }\n\n  function addBook(string memory id, uint8 count) public onlyOwner {\n      bool exists = books[id].exists;\n\n      // If the book is not present in the mapping\n      if (!exists) {\n          // Create new book\n          address[] memory borrowers;\n          Book memory newBook = Book({\n              id: id,\n              count: count,\n              exists: true,\n              borrowers: borrowers\n          });\n\n          booksStored.push(newBook);\n          books[id] = newBook;\n      } else {\n          // The book is present\n          books[id].count += count;\n      }\n\n      booksCount += 1;\n  }\n\n  function borrowBook(string memory id) public {\n      require(books[id].exists);\n      require(books[id].count != 0);\n\n      books[id].count -= 1;\n      books[id].borrowers.push(msg.sender);\n\n      // Update the booksStored array\n      for (uint256 i = 0; i < booksStored.length; i++) {\n          if (keccak256(abi.encodePacked((booksStored[i].id))) == keccak256(abi.encodePacked((id)))) {\n              booksStored[i].count = books[id].count;\n          }\n      }\n  }\n\n  function returnBook(string memory id, uint8 count) public {\n      require(books[id].exists);\n      books[id].count += count;\n      // Update the booksStored array\n      for (uint256 i = 0; i < booksStored.length; i++) {\n          if (keccak256(abi.encodePacked((booksStored[i].id))) == keccak256(abi.encodePacked((id)))) {\n              booksStored[i].count = books[id].count;\n          }\n      }\n  }\n\n  function getBorrowers(string memory id) public view returns (address[] memory) {\n      require(books[id].exists);\n\n      return books[id].borrowers;\n  }\n}",
  "sourcePath": "/Users/steriostaskudis/Desktop/Training path/Library contract/contracts/BookLibrary.sol",
  "compiler": {
    "name": "solc",
    "version": "0.7.5+commit.eb77ed08.Emscripten.clang",
    "optimizer": false,
    "runs": 200
  },
  "schemaVersion": "2.3.5",
  "updatedAt": "2021-06-01T07:03:04.985Z"
}