{
  "contractName": "BookLibrary",
  "abi": [
    {
      "inputs": [
        {
          "internalType": "address",
          "name": "LIBTokenAddress",
          "type": "address"
        },
        {
          "internalType": "address payable",
          "name": "LIBWrapperAddress",
          "type": "address"
        }
      ],
      "stateMutability": "nonpayable",
      "type": "constructor"
    },
    {
      "anonymous": false,
      "inputs": [
        {
          "indexed": false,
          "internalType": "string",
          "name": "name",
          "type": "string"
        }
      ],
      "name": "BookAdded",
      "type": "event"
    },
    {
      "anonymous": false,
      "inputs": [
        {
          "indexed": false,
          "internalType": "string",
          "name": "name",
          "type": "string"
        }
      ],
      "name": "BookBorrowed",
      "type": "event"
    },
    {
      "anonymous": false,
      "inputs": [
        {
          "indexed": false,
          "internalType": "string",
          "name": "name",
          "type": "string"
        }
      ],
      "name": "BookReturned",
      "type": "event"
    },
    {
      "anonymous": false,
      "inputs": [
        {
          "indexed": true,
          "internalType": "address",
          "name": "previousOwner",
          "type": "address"
        },
        {
          "indexed": true,
          "internalType": "address",
          "name": "newOwner",
          "type": "address"
        }
      ],
      "name": "OwnershipTransferred",
      "type": "event"
    },
    {
      "inputs": [],
      "name": "LIBToken",
      "outputs": [
        {
          "internalType": "contract IERC20",
          "name": "",
          "type": "address"
        }
      ],
      "stateMutability": "view",
      "type": "function"
    },
    {
      "inputs": [],
      "name": "LIBWrapperContract",
      "outputs": [
        {
          "internalType": "contract LIBWrapper",
          "name": "",
          "type": "address"
        }
      ],
      "stateMutability": "view",
      "type": "function"
    },
    {
      "inputs": [
        {
          "internalType": "uint256",
          "name": "",
          "type": "uint256"
        }
      ],
      "name": "booksStored",
      "outputs": [
        {
          "internalType": "string",
          "name": "id",
          "type": "string"
        },
        {
          "internalType": "uint8",
          "name": "count",
          "type": "uint8"
        },
        {
          "internalType": "bool",
          "name": "exists",
          "type": "bool"
        }
      ],
      "stateMutability": "view",
      "type": "function"
    },
    {
      "inputs": [],
      "name": "owner",
      "outputs": [
        {
          "internalType": "address",
          "name": "",
          "type": "address"
        }
      ],
      "stateMutability": "view",
      "type": "function"
    },
    {
      "inputs": [],
      "name": "renounceOwnership",
      "outputs": [],
      "stateMutability": "nonpayable",
      "type": "function"
    },
    {
      "inputs": [],
      "name": "rent",
      "outputs": [
        {
          "internalType": "uint256",
          "name": "",
          "type": "uint256"
        }
      ],
      "stateMutability": "view",
      "type": "function"
    },
    {
      "inputs": [
        {
          "internalType": "address",
          "name": "newOwner",
          "type": "address"
        }
      ],
      "name": "transferOwnership",
      "outputs": [],
      "stateMutability": "nonpayable",
      "type": "function"
    },
    {
      "inputs": [],
      "name": "wrapperAddress",
      "outputs": [
        {
          "internalType": "address payable",
          "name": "",
          "type": "address"
        }
      ],
      "stateMutability": "view",
      "type": "function"
    },
    {
      "stateMutability": "payable",
      "type": "receive"
    },
    {
      "inputs": [],
      "name": "getAvailableBooks",
      "outputs": [
        {
          "components": [
            {
              "internalType": "string",
              "name": "id",
              "type": "string"
            },
            {
              "internalType": "uint8",
              "name": "count",
              "type": "uint8"
            },
            {
              "internalType": "bool",
              "name": "exists",
              "type": "bool"
            },
            {
              "internalType": "address[]",
              "name": "borrowers",
              "type": "address[]"
            }
          ],
          "internalType": "struct BookLibrary.Book[]",
          "name": "",
          "type": "tuple[]"
        }
      ],
      "stateMutability": "view",
      "type": "function"
    },
    {
      "inputs": [],
      "name": "getStoredBooks",
      "outputs": [
        {
          "components": [
            {
              "internalType": "string",
              "name": "id",
              "type": "string"
            },
            {
              "internalType": "uint8",
              "name": "count",
              "type": "uint8"
            },
            {
              "internalType": "bool",
              "name": "exists",
              "type": "bool"
            },
            {
              "internalType": "address[]",
              "name": "borrowers",
              "type": "address[]"
            }
          ],
          "internalType": "struct BookLibrary.Book[]",
          "name": "",
          "type": "tuple[]"
        }
      ],
      "stateMutability": "view",
      "type": "function"
    },
    {
      "inputs": [
        {
          "internalType": "string",
          "name": "id",
          "type": "string"
        }
      ],
      "name": "getBorrowers",
      "outputs": [
        {
          "internalType": "address[]",
          "name": "",
          "type": "address[]"
        }
      ],
      "stateMutability": "view",
      "type": "function"
    },
    {
      "inputs": [
        {
          "internalType": "string",
          "name": "id",
          "type": "string"
        },
        {
          "internalType": "uint8",
          "name": "count",
          "type": "uint8"
        }
      ],
      "name": "addBook",
      "outputs": [],
      "stateMutability": "nonpayable",
      "type": "function"
    },
    {
      "inputs": [
        {
          "internalType": "string",
          "name": "id",
          "type": "string"
        }
      ],
      "name": "borrowBook",
      "outputs": [],
      "stateMutability": "nonpayable",
      "type": "function"
    },
    {
      "inputs": [],
      "name": "withdrawLibraryAmount",
      "outputs": [],
      "stateMutability": "nonpayable",
      "type": "function"
    },
    {
      "inputs": [
        {
          "internalType": "string",
          "name": "id",
          "type": "string"
        },
        {
          "internalType": "uint8",
          "name": "count",
          "type": "uint8"
        }
      ],
      "name": "returnBook",
      "outputs": [],
      "stateMutability": "nonpayable",
      "type": "function"
    },
    {
      "inputs": [
        {
          "internalType": "string",
          "name": "id",
          "type": "string"
        }
      ],
      "name": "isAvailable",
      "outputs": [
        {
          "internalType": "bool",
          "name": "",
          "type": "bool"
        }
      ],
      "stateMutability": "view",
      "type": "function"
    },
    {
      "inputs": [
        {
          "internalType": "string",
          "name": "id",
          "type": "string"
        }
      ],
      "name": "isRented",
      "outputs": [
        {
          "internalType": "bool",
          "name": "",
          "type": "bool"
        }
      ],
      "stateMutability": "view",
      "type": "function"
    }
  ],
  "bytecode": "0x608060405264e8d4a5100060045560006005553480156200001f57600080fd5b50604051620033e4380380620033e48339818101604052810190620000459190620001f6565b600062000057620001c060201b60201c565b9050806000806101000a81548173ffffffffffffffffffffffffffffffffffffffff021916908373ffffffffffffffffffffffffffffffffffffffff1602179055508073ffffffffffffffffffffffffffffffffffffffff16600073ffffffffffffffffffffffffffffffffffffffff167f8be0079c531659141344cd1fd0a4f28419497f9722a3daafe3b4186f6b6457e060405160405180910390a35081600160006101000a81548173ffffffffffffffffffffffffffffffffffffffff021916908373ffffffffffffffffffffffffffffffffffffffff16021790555080600260006101000a81548173ffffffffffffffffffffffffffffffffffffffff021916908373ffffffffffffffffffffffffffffffffffffffff16021790555080600360006101000a81548173ffffffffffffffffffffffffffffffffffffffff021916908373ffffffffffffffffffffffffffffffffffffffff1602179055505050620002b3565b600033905090565b600081519050620001d9816200027f565b92915050565b600081519050620001f08162000299565b92915050565b600080604083850312156200020a57600080fd5b60006200021a85828601620001c8565b92505060206200022d85828601620001df565b9150509250929050565b600062000244826200025f565b9050919050565b600062000258826200025f565b9050919050565b600073ffffffffffffffffffffffffffffffffffffffff82169050919050565b6200028a8162000237565b81146200029657600080fd5b50565b620002a4816200024b565b8114620002b057600080fd5b50565b61312180620002c36000396000f3fe6080604052600436106101025760003560e01c8063965306aa11610095578063bddb56b411610064578063bddb56b414610344578063ced96fe31461035b578063d6c084d914610384578063f2ddbb7f146103af578063f2fde38b146103da57610109565b8063965306aa14610276578063a034d084146102b3578063a63ac38e146102f0578063b47153521461031957610109565b80637df8b802116100d15780637df8b802146101cc57806382996d9f146101f75780638da5cb5b1461022257806394949eee1461024d57610109565b80631ba3192b1461010e5780632588b13414610139578063582bcda514610178578063715018a6146101b557610109565b3661010957005b600080fd5b34801561011a57600080fd5b50610123610403565b6040516101309190612c2d565b60405180910390f35b34801561014557600080fd5b50610160600480360381019061015b919061238d565b610429565b60405161016f93929190612c85565b60405180910390f35b34801561018457600080fd5b5061019f600480360381019061019a91906122f8565b610515565b6040516101ac9190612bce565b60405180910390f35b3480156101c157600080fd5b506101ca610632565b005b3480156101d857600080fd5b506101e161079f565b6040516101ee9190612b2a565b60405180910390f35b34801561020357600080fd5b5061020c6107c5565b6040516102199190612de3565b60405180910390f35b34801561022e57600080fd5b506102376107cb565b6040516102449190612af4565b60405180910390f35b34801561025957600080fd5b50610274600480360381019061026f9190612339565b6107f4565b005b34801561028257600080fd5b5061029d600480360381019061029891906122f8565b610b00565b6040516102aa9190612c12565b60405180910390f35b3480156102bf57600080fd5b506102da60048036038101906102d591906122f8565b610b3e565b6040516102e79190612c12565b60405180910390f35b3480156102fc57600080fd5b5061031760048036038101906103129190612339565b610bb0565b005b34801561032557600080fd5b5061032e610fad565b60405161033b9190612bf0565b60405180910390f35b34801561035057600080fd5b50610359611174565b005b34801561036757600080fd5b50610382600480360381019061037d91906122f8565b611434565b005b34801561039057600080fd5b50610399611afe565b6040516103a69190612bf0565b60405180910390f35b3480156103bb57600080fd5b506103c4611e15565b6040516103d19190612c48565b60405180910390f35b3480156103e657600080fd5b5061040160048036038101906103fc91906122a6565b611e3b565b005b600160009054906101000a900473ffffffffffffffffffffffffffffffffffffffff1681565b6006818154811061043957600080fd5b9060005260206000209060030201600091509050806000018054600181600116156101000203166002900480601f0160208091040260200160405190810160405280929190818152602001828054600181600116156101000203166002900480156104e55780601f106104ba576101008083540402835291602001916104e5565b820191906000526020600020905b8154815290600101906020018083116104c857829003601f168201915b5050505050908060010160009054906101000a900460ff16908060010160019054906101000a900460ff16905083565b60606007826040516105279190612ac6565b908152602001604051809103902060010160019054906101000a900460ff16610585576040517f08c379a000000000000000000000000000000000000000000000000000000000815260040161057c90612d23565b60405180910390fd5b6007826040516105959190612ac6565b908152602001604051809103902060020180548060200260200160405190810160405280929190818152602001828054801561062657602002820191906000526020600020905b8160009054906101000a900473ffffffffffffffffffffffffffffffffffffffff1673ffffffffffffffffffffffffffffffffffffffff16815260200190600101908083116105dc575b50505050509050919050565b61063a61202d565b73ffffffffffffffffffffffffffffffffffffffff166106586107cb565b73ffffffffffffffffffffffffffffffffffffffff16146106e1576040517f08c379a00000000000000000000000000000000000000000000000000000000081526004018080602001828103825260208152602001807f4f776e61626c653a2063616c6c6572206973206e6f7420746865206f776e657281525060200191505060405180910390fd5b600073ffffffffffffffffffffffffffffffffffffffff1660008054906101000a900473ffffffffffffffffffffffffffffffffffffffff1673ffffffffffffffffffffffffffffffffffffffff167f8be0079c531659141344cd1fd0a4f28419497f9722a3daafe3b4186f6b6457e060405160405180910390a360008060006101000a81548173ffffffffffffffffffffffffffffffffffffffff021916908373ffffffffffffffffffffffffffffffffffffffff160217905550565b600360009054906101000a900473ffffffffffffffffffffffffffffffffffffffff1681565b60045481565b60008060009054906101000a900473ffffffffffffffffffffffffffffffffffffffff16905090565b6007826040516108049190612ac6565b908152602001604051809103902060010160019054906101000a900460ff16610862576040517f08c379a000000000000000000000000000000000000000000000000000000000815260040161085990612d03565b60405180910390fd5b600860003373ffffffffffffffffffffffffffffffffffffffff1673ffffffffffffffffffffffffffffffffffffffff168152602001908152602001600020826040516108af9190612ac6565b908152602001604051809103902060009054906101000a900460ff1661090a576040517f08c379a000000000000000000000000000000000000000000000000000000000815260040161090190612dc3565b60405180910390fd5b8060078360405161091b9190612ac6565b908152602001604051809103902060010160008282829054906101000a900460ff160192506101000a81548160ff021916908360ff16021790555060005b600680549050811015610a5057826040516020016109779190612ac6565b604051602081830303815290604052805190602001206006828154811061099a57fe5b90600052602060002090600302016000016040516020016109bb9190612add565b604051602081830303815290604052805190602001201415610a43576000600682815481106109e657fe5b90600052602060002090600302019050600784604051610a069190612ac6565b908152602001604051809103902060010160009054906101000a900460ff168160010160006101000a81548160ff021916908360ff160217905550505b8080600101915050610959565b506000600860003373ffffffffffffffffffffffffffffffffffffffff1673ffffffffffffffffffffffffffffffffffffffff16815260200190815260200160002083604051610aa09190612ac6565b908152602001604051809103902060006101000a81548160ff0219169083151502179055507f1a467d925cbd35155a7cdd05f9207ad929a02ffb3292ece4d3291a4359f6c83c82604051610af49190612c63565b60405180910390a15050565b600080600783604051610b139190612ac6565b908152602001604051809103902060010160009054906101000a900460ff1660ff1614159050919050565b6000600860003373ffffffffffffffffffffffffffffffffffffffff1673ffffffffffffffffffffffffffffffffffffffff16815260200190815260200160002082604051610b8d9190612ac6565b908152602001604051809103902060009054906101000a900460ff169050919050565b610bb861202d565b73ffffffffffffffffffffffffffffffffffffffff16610bd66107cb565b73ffffffffffffffffffffffffffffffffffffffff1614610c5f576040517f08c379a00000000000000000000000000000000000000000000000000000000081526004018080602001828103825260208152602001807f4f776e61626c653a2063616c6c6572206973206e6f7420746865206f776e657281525060200191505060405180910390fd5b6000600783604051610c719190612ac6565b908152602001604051809103902060010160019054906101000a900460ff16905080610e28576060610ca1612035565b60405180608001604052808681526020018560ff16815260200160011515815260200183815250905060068190806001815401808255809150506001900390600052602060002090600302016000909190919091506000820151816000019080519060200190610d12929190612062565b5060208201518160010160006101000a81548160ff021916908360ff16021790555060408201518160010160016101000a81548160ff0219169083151502179055506060820151816002019080519060200190610d709291906120f0565b50505080600786604051610d849190612ac6565b90815260200160405180910390206000820151816000019080519060200190610dae929190612062565b5060208201518160010160006101000a81548160ff021916908360ff16021790555060408201518160010160016101000a81548160ff0219169083151502179055506060820151816002019080519060200190610e0c9291906120f0565b5090505060016005600082825401925050819055505050610f71565b6001600784604051610e3a9190612ac6565b908152602001604051809103902060010160008282829054906101000a900460ff160192506101000a81548160ff021916908360ff16021790555060005b600680549050811015610f6f5783604051602001610e969190612ac6565b6040516020818303038152906040528051906020012060068281548110610eb957fe5b9060005260206000209060030201600001604051602001610eda9190612add565b604051602081830303815290604052805190602001201415610f6257600060068281548110610f0557fe5b90600052602060002090600302019050600785604051610f259190612ac6565b908152602001604051809103902060010160009054906101000a900460ff168160010160006101000a81548160ff021916908360ff160217905550505b8080600101915050610e78565b505b7f272b168e2afaa6efdce672a6f4f4f1b37eb61405daf39e4b520beeeacb2596ef83604051610fa09190612c63565b60405180910390a1505050565b60606006805480602002602001604051908101604052809291908181526020016000905b8282101561116b5783829060005260206000209060030201604051806080016040529081600082018054600181600116156101000203166002900480601f01602080910402602001604051908101604052809291908181526020018280546001816001161561010002031660029004801561108d5780601f106110625761010080835404028352916020019161108d565b820191906000526020600020905b81548152906001019060200180831161107057829003601f168201915b505050505081526020016001820160009054906101000a900460ff1660ff1660ff1681526020016001820160019054906101000a900460ff161515151581526020016002820180548060200260200160405190810160405280929190818152602001828054801561115357602002820191906000526020600020905b8160009054906101000a900473ffffffffffffffffffffffffffffffffffffffff1673ffffffffffffffffffffffffffffffffffffffff1681526020019060010190808311611109575b50505050508152505081526020019060010190610fd1565b50505050905090565b61117c61202d565b73ffffffffffffffffffffffffffffffffffffffff1661119a6107cb565b73ffffffffffffffffffffffffffffffffffffffff1614611223576040517f08c379a00000000000000000000000000000000000000000000000000000000081526004018080602001828103825260208152602001807f4f776e61626c653a2063616c6c6572206973206e6f7420746865206f776e657281525060200191505060405180910390fd5b6000600160009054906101000a900473ffffffffffffffffffffffffffffffffffffffff1673ffffffffffffffffffffffffffffffffffffffff166370a08231306040518263ffffffff1660e01b81526004016112809190612b0f565b60206040518083038186803b15801561129857600080fd5b505afa1580156112ac573d6000803e3d6000fd5b505050506040513d601f19601f820116820180604052508101906112d091906123b6565b9050600160009054906101000a900473ffffffffffffffffffffffffffffffffffffffff1673ffffffffffffffffffffffffffffffffffffffff1663095ea7b3600360009054906101000a900473ffffffffffffffffffffffffffffffffffffffff16836040518363ffffffff1660e01b8152600401611351929190612ba5565b602060405180830381600087803b15801561136b57600080fd5b505af115801561137f573d6000803e3d6000fd5b505050506040513d601f19601f820116820180604052508101906113a391906122cf565b50600260009054906101000a900473ffffffffffffffffffffffffffffffffffffffff1673ffffffffffffffffffffffffffffffffffffffff1663de0e9a3e826040518263ffffffff1660e01b81526004016113ff9190612de3565b600060405180830381600087803b15801561141957600080fd5b505af115801561142d573d6000803e3d6000fd5b5050505050565b6007816040516114449190612ac6565b908152602001604051809103902060010160019054906101000a900460ff166114a2576040517f08c379a000000000000000000000000000000000000000000000000000000000815260040161149990612d83565b60405180910390fd5b60006007826040516114b49190612ac6565b908152602001604051809103902060010160009054906101000a900460ff1660ff161415611517576040517f08c379a000000000000000000000000000000000000000000000000000000000815260040161150e90612d63565b60405180910390fd5b600860003373ffffffffffffffffffffffffffffffffffffffff1673ffffffffffffffffffffffffffffffffffffffff168152602001908152602001600020816040516115649190612ac6565b908152602001604051809103902060009054906101000a900460ff16156115c0576040517f08c379a00000000000000000000000000000000000000000000000000000000081526004016115b790612da3565b60405180910390fd5b600454600160009054906101000a900473ffffffffffffffffffffffffffffffffffffffff1673ffffffffffffffffffffffffffffffffffffffff1663dd62ed3e33306040518363ffffffff1660e01b8152600401611620929190612b45565b60206040518083038186803b15801561163857600080fd5b505afa15801561164c573d6000803e3d6000fd5b505050506040513d601f19601f8201168201806040525081019061167091906123b6565b10156116b1576040517f08c379a00000000000000000000000000000000000000000000000000000000081526004016116a890612cc3565b60405180910390fd5b6000600160009054906101000a900473ffffffffffffffffffffffffffffffffffffffff1673ffffffffffffffffffffffffffffffffffffffff166370a08231336040518263ffffffff1660e01b815260040161170e9190612b0f565b60206040518083038186803b15801561172657600080fd5b505afa15801561173a573d6000803e3d6000fd5b505050506040513d601f19601f8201168201806040525081019061175e91906123b6565b1161179e576040517f08c379a000000000000000000000000000000000000000000000000000000000815260040161179590612ce3565b60405180910390fd5b600160009054906101000a900473ffffffffffffffffffffffffffffffffffffffff1673ffffffffffffffffffffffffffffffffffffffff166323b872dd33306004546040518463ffffffff1660e01b81526004016117ff93929190612b6e565b602060405180830381600087803b15801561181957600080fd5b505af115801561182d573d6000803e3d6000fd5b505050506040513d601f19601f8201168201806040525081019061185191906122cf565b5060016007826040516118649190612ac6565b908152602001604051809103902060010160008282829054906101000a900460ff160392506101000a81548160ff021916908360ff1602179055506007816040516118af9190612ac6565b9081526020016040518091039020600201339080600181540180825580915050600190039060005260206000200160009091909190916101000a81548173ffffffffffffffffffffffffffffffffffffffff021916908373ffffffffffffffffffffffffffffffffffffffff16021790555060005b600680549050811015611a4f57816040516020016119429190612ac6565b604051602081830303815290604052805190602001206006828154811061196557fe5b90600052602060002090600302016000016040516020016119869190612add565b604051602081830303815290604052805190602001201415611a42576000600682815481106119b157fe5b906000526020600020906003020190506007836040516119d19190612ac6565b908152602001604051809103902060010160009054906101000a900460ff168160010160006101000a81548160ff021916908360ff160217905550600783604051611a1c9190612ac6565b908152602001604051809103902060020181600201908054611a3f92919061217a565b50505b8080600101915050611924565b506001600860003373ffffffffffffffffffffffffffffffffffffffff1673ffffffffffffffffffffffffffffffffffffffff16815260200190815260200160002082604051611a9f9190612ac6565b908152602001604051809103902060006101000a81548160ff0219169083151502179055507fcccf80284b1751143f9ea2803a954b2642846c29009456a246ce78eee86b59d881604051611af39190612c63565b60405180910390a150565b606060006005541415611b46576040517f08c379a0000000000000000000000000000000000000000000000000000000008152600401611b3d90612d43565b60405180910390fd5b6000805b6005548160ff161015611ba657600060068260ff1681548110611b6957fe5b906000526020600020906003020160010160009054906101000a900460ff1660ff1614611b995781806001019250505b8080600101915050611b4a565b5060608160ff1667ffffffffffffffff81118015611bc357600080fd5b50604051908082528060200260200182016040528015611bfd57816020015b611bea612035565b815260200190600190039081611be25790505b5090506000805b6005548160ff161015611e0b57600060068260ff1681548110611c2357fe5b906000526020600020906003020160010160009054906101000a900460ff1660ff1614611dfe5760068160ff1681548110611c5a57fe5b9060005260206000209060030201604051806080016040529081600082018054600181600116156101000203166002900480601f016020809104026020016040519081016040528092919081815260200182805460018160011615610100020316600290048015611d0c5780601f10611ce157610100808354040283529160200191611d0c565b820191906000526020600020905b815481529060010190602001808311611cef57829003601f168201915b505050505081526020016001820160009054906101000a900460ff1660ff1660ff1681526020016001820160019054906101000a900460ff1615151515815260200160028201805480602002602001604051908101604052809291908181526020018280548015611dd257602002820191906000526020600020905b8160009054906101000a900473ffffffffffffffffffffffffffffffffffffffff1673ffffffffffffffffffffffffffffffffffffffff1681526020019060010190808311611d88575b505050505081525050838360ff1681518110611dea57fe5b602002602001018190525081806001019250505b8080600101915050611c04565b5081935050505090565b600260009054906101000a900473ffffffffffffffffffffffffffffffffffffffff1681565b611e4361202d565b73ffffffffffffffffffffffffffffffffffffffff16611e616107cb565b73ffffffffffffffffffffffffffffffffffffffff1614611eea576040517f08c379a00000000000000000000000000000000000000000000000000000000081526004018080602001828103825260208152602001807f4f776e61626c653a2063616c6c6572206973206e6f7420746865206f776e657281525060200191505060405180910390fd5b600073ffffffffffffffffffffffffffffffffffffffff168173ffffffffffffffffffffffffffffffffffffffff161415611f70576040517f08c379a00000000000000000000000000000000000000000000000000000000081526004018080602001828103825260268152602001806130c66026913960400191505060405180910390fd5b8073ffffffffffffffffffffffffffffffffffffffff1660008054906101000a900473ffffffffffffffffffffffffffffffffffffffff1673ffffffffffffffffffffffffffffffffffffffff167f8be0079c531659141344cd1fd0a4f28419497f9722a3daafe3b4186f6b6457e060405160405180910390a3806000806101000a81548173ffffffffffffffffffffffffffffffffffffffff021916908373ffffffffffffffffffffffffffffffffffffffff16021790555050565b600033905090565b604051806080016040528060608152602001600060ff168152602001600015158152602001606081525090565b828054600181600116156101000203166002900490600052602060002090601f01602090048101928261209857600085556120df565b82601f106120b157805160ff19168380011785556120df565b828001600101855582156120df579182015b828111156120de5782518255916020019190600101906120c3565b5b5090506120ec91906121cc565b5090565b828054828255906000526020600020908101928215612169579160200282015b828111156121685782518260006101000a81548173ffffffffffffffffffffffffffffffffffffffff021916908373ffffffffffffffffffffffffffffffffffffffff16021790555091602001919060010190612110565b5b50905061217691906121cc565b5090565b8280548282559060005260206000209081019282156121bb5760005260206000209182015b828111156121ba57825482559160010191906001019061219f565b5b5090506121c891906121cc565b5090565b5b808211156121e55760008160009055506001016121cd565b5090565b6000813590506121f881613069565b92915050565b60008151905061220d81613080565b92915050565b600082601f83011261222457600080fd5b813561223761223282612e2f565b612dfe565b9150808252602083016020830185838301111561225357600080fd5b61225e838284613014565b50505092915050565b60008135905061227681613097565b92915050565b60008151905061228b81613097565b92915050565b6000813590506122a0816130ae565b92915050565b6000602082840312156122b857600080fd5b60006122c6848285016121e9565b91505092915050565b6000602082840312156122e157600080fd5b60006122ef848285016121fe565b91505092915050565b60006020828403121561230a57600080fd5b600082013567ffffffffffffffff81111561232457600080fd5b61233084828501612213565b91505092915050565b6000806040838503121561234c57600080fd5b600083013567ffffffffffffffff81111561236657600080fd5b61237285828601612213565b925050602061238385828601612291565b9150509250929050565b60006020828403121561239f57600080fd5b60006123ad84828501612267565b91505092915050565b6000602082840312156123c857600080fd5b60006123d68482850161227c565b91505092915050565b60006123eb8383612429565b60208301905092915050565b60006124038383612a2f565b905092915050565b61241481612f96565b82525050565b61242381612f41565b82525050565b61243281612f2f565b82525050565b61244181612f2f565b82525050565b600061245282612e94565b61245c8185612ecf565b935061246783612e5f565b8060005b8381101561249857815161247f88826123df565b975061248a83612eb5565b92505060018101905061246b565b5085935050505092915050565b60006124b082612e94565b6124ba8185612ee0565b93506124c583612e5f565b8060005b838110156124f65781516124dd88826123df565b97506124e883612eb5565b9250506001810190506124c9565b5085935050505092915050565b600061250e82612e9f565b6125188185612ef1565b93508360208202850161252a85612e6f565b8060005b85811015612566578484038952815161254785826123f7565b945061255283612ec2565b925060208a0199505060018101905061252e565b50829750879550505050505092915050565b61258181612f53565b82525050565b61259081612f53565b82525050565b61259f81612fa8565b82525050565b6125ae81612fcc565b82525050565b60006125bf82612eaa565b6125c98185612f02565b93506125d9818560208601613023565b6125e281613058565b840191505092915050565b60006125f882612eaa565b6126028185612f13565b9350612612818560208601613023565b61261b81613058565b840191505092915050565b600061263182612eaa565b61263b8185612f24565b935061264b818560208601613023565b80840191505092915050565b6000815460018116600081146126745760018114612699576126dd565b607f60028304166126858187612f24565b955060ff19831686528086019350506126dd565b600282046126a78187612f24565b95506126b285612e7f565b60005b828110156126d4578154818901526001820191506020810190506126b5565b82880195505050505b505092915050565b60006126f2602083612f13565b91507f4e6f7420656e6f756768204c494220546f6b656e20616c6c6f77616e636520216000830152602082019050919050565b6000612732602d83612f13565b91507f557365722062616c616e6365206973206e6f7420656e6f75676820746f20726560008301527f6e742074686520626f6f6b2021000000000000000000000000000000000000006020830152604082019050919050565b6000612798603d83612f13565b91507f546865207573657220697320747279696e6720746f2072657475726e2061206260008301527f6f6f6b20776869636820646f65736e27742065786973742079657420210000006020830152604082019050919050565b60006127fe602383612f13565b91507f5468652072657175657374656420626f6f6b20646f65736e277420657869737460008301527f73202100000000000000000000000000000000000000000000000000000000006020830152604082019050919050565b6000612864601883612f13565b91507f546865726520617265206e6f20736176656420626f6f6b7300000000000000006000830152602082019050919050565b60006128a4602d83612f13565b91507f536f727279207468657265206973206e6f7420656e6f75676820636f756e742060008301527f6f662074686520626f6f6b2021000000000000000000000000000000000000006020830152604082019050919050565b600061290a602383612f13565b91507f536f7272792074686520626f6f6b20646f65736e27742065786973747320796560008301527f74202100000000000000000000000000000000000000000000000000000000006020830152604082019050919050565b6000612970603883612f13565b91507f536f7272792074686520757365722068617320616c726561647920626f72726f60008301527f776564206f6e6520636f7079206f662074686520626f6f6b00000000000000006020830152604082019050919050565b60006129d6602383612f13565b91507f546865207573657220686176656e27742072656e746564207468617420626f6f60008301527f6b202100000000000000000000000000000000000000000000000000000000006020830152604082019050919050565b60006080830160008301518482036000860152612a4c82826125b4565b9150506020830151612a616020860182612aa8565b506040830151612a746040860182612578565b5060608301518482036060860152612a8c8282612447565b9150508091505092915050565b612aa281612f7f565b82525050565b612ab181612f89565b82525050565b612ac081612f89565b82525050565b6000612ad28284612626565b915081905092915050565b6000612ae98284612657565b915081905092915050565b6000602082019050612b096000830184612438565b92915050565b6000602082019050612b24600083018461240b565b92915050565b6000602082019050612b3f600083018461241a565b92915050565b6000604082019050612b5a600083018561240b565b612b67602083018461240b565b9392505050565b6000606082019050612b83600083018661240b565b612b90602083018561240b565b612b9d6040830184612a99565b949350505050565b6000604082019050612bba600083018561240b565b612bc76020830184612a99565b9392505050565b60006020820190508181036000830152612be881846124a5565b905092915050565b60006020820190508181036000830152612c0a8184612503565b905092915050565b6000602082019050612c276000830184612587565b92915050565b6000602082019050612c426000830184612596565b92915050565b6000602082019050612c5d60008301846125a5565b92915050565b60006020820190508181036000830152612c7d81846125ed565b905092915050565b60006060820190508181036000830152612c9f81866125ed565b9050612cae6020830185612ab7565b612cbb6040830184612587565b949350505050565b60006020820190508181036000830152612cdc816126e5565b9050919050565b60006020820190508181036000830152612cfc81612725565b9050919050565b60006020820190508181036000830152612d1c8161278b565b9050919050565b60006020820190508181036000830152612d3c816127f1565b9050919050565b60006020820190508181036000830152612d5c81612857565b9050919050565b60006020820190508181036000830152612d7c81612897565b9050919050565b60006020820190508181036000830152612d9c816128fd565b9050919050565b60006020820190508181036000830152612dbc81612963565b9050919050565b60006020820190508181036000830152612ddc816129c9565b9050919050565b6000602082019050612df86000830184612a99565b92915050565b6000604051905081810181811067ffffffffffffffff82111715612e2557612e24613056565b5b8060405250919050565b600067ffffffffffffffff821115612e4a57612e49613056565b5b601f19601f8301169050602081019050919050565b6000819050602082019050919050565b6000819050602082019050919050565b60008190508160005260206000209050919050565b600081519050919050565b600081519050919050565b600081519050919050565b6000602082019050919050565b6000602082019050919050565b600082825260208201905092915050565b600082825260208201905092915050565b600082825260208201905092915050565b600082825260208201905092915050565b600082825260208201905092915050565b600081905092915050565b6000612f3a82612f5f565b9050919050565b6000612f4c82612f5f565b9050919050565b60008115159050919050565b600073ffffffffffffffffffffffffffffffffffffffff82169050919050565b6000819050919050565b600060ff82169050919050565b6000612fa182612ff0565b9050919050565b6000612fb382612fba565b9050919050565b6000612fc582612f5f565b9050919050565b6000612fd782612fde565b9050919050565b6000612fe982612f5f565b9050919050565b6000612ffb82613002565b9050919050565b600061300d82612f5f565b9050919050565b82818337600083830152505050565b60005b83811015613041578082015181840152602081019050613026565b83811115613050576000848401525b50505050565bfe5b6000601f19601f8301169050919050565b61307281612f2f565b811461307d57600080fd5b50565b61308981612f53565b811461309457600080fd5b50565b6130a081612f7f565b81146130ab57600080fd5b50565b6130b781612f89565b81146130c257600080fd5b5056fe4f776e61626c653a206e6577206f776e657220697320746865207a65726f2061646472657373a2646970667358221220901fe149b64729163bf302163be406433b5c4d0fe60f57d89c6cce8e21bae46d64736f6c63430007050033",
  "source": "// SPDX-License-Identifier: UNLICENSED\npragma experimental ABIEncoderV2;\npragma solidity >=0.7.0;\n\nimport \"@openzeppelin/contracts/access/Ownable.sol\";\nimport \"@openzeppelin/contracts/token/ERC20/IERC20.sol\";\nimport \"./LIBWrapper.sol\";\n\ncontract BookLibrary is Ownable {\n  IERC20 public LIBToken;\n  LIBWrapper public LIBWrapperContract;\n\n  address payable public wrapperAddress;\n  uint public rent = 1000000000000;\n\n  struct Book {\n      string id;\n      uint8 count;\n      bool exists;\n      address[] borrowers;\n  }\n\n  uint256 booksCount = 0;\n\n  Book[] public booksStored;\n  mapping (string => Book) private books;\n  mapping (address => mapping (string => bool)) private userBooks;\n\n  // Events\n  event BookAdded(string name);\n  event BookBorrowed(string name);\n  event BookReturned(string name);\n\n  constructor(address LIBTokenAddress, address payable LIBWrapperAddress) public {\n    LIBToken = IERC20(LIBTokenAddress);\n    LIBWrapperContract = LIBWrapper(LIBWrapperAddress);\n    wrapperAddress = LIBWrapperAddress;\n  }\n\n  // Getters\n  function getAvailableBooks() public view returns (Book[] memory) {\n    require(booksCount != 0, \"There are no saved books\");\n    // Count the available booksCount\n    uint8 availableBooksCount = 0;\n    for (uint8 i = 0; i < booksCount; i++) {\n        if (booksStored[i].count != 0) {\n            availableBooksCount++;\n        }\n    }\n\n    // Create dynamic memory array\n    Book[] memory dynamicMemoryArray = new Book[](availableBooksCount);\n    uint8 counter = 0;\n    for (uint8 i = 0; i < booksCount; i++) {\n        if (booksStored[i].count != 0) {\n            dynamicMemoryArray[counter] = booksStored[i];\n            counter++;\n        }\n    }\n\n    return dynamicMemoryArray;\n  }\n\n  function getStoredBooks () public view returns (Book[] memory) {\n      return booksStored;\n  }\n\n  function getBorrowers(string memory id) public view returns (address[] memory) {\n      require(books[id].exists, \"The requested book doesn't exists !\");\n      return books[id].borrowers;\n  }\n\n  // Interactions\n  function addBook(string memory id, uint8 count) public onlyOwner {\n    bool exists = books[id].exists;\n\n    // If the book is not present in the mapping\n    if (!exists) {\n      // Create new book\n      address[] memory borrowers;\n      Book memory newBook = Book({ id: id, count: count, exists: true, borrowers: borrowers });\n\n      booksStored.push(newBook);\n      books[id] = newBook;\n      booksCount += 1;\n    } else {\n      // The book is present\n      books[id].count += 1;\n\n      // Update the booksStored array\n      for (uint256 i = 0; i < booksStored.length; i++) {\n        if (keccak256(abi.encodePacked((booksStored[i].id))) == keccak256(abi.encodePacked((id)))) {\n            Book storage currentBook = booksStored[i];\n            currentBook.count = books[id].count;\n        }\n      }\n    }\n\n    emit BookAdded(id);\n  }\n\n  function borrowBook(string memory id) public {\n      require(books[id].exists, \"Sorry the book doesn't exists yet !\");\n      require(books[id].count != 0, \"Sorry there is not enough count of the book !\");\n      require(!userBooks[msg.sender][id], \"Sorry the user has already borrowed one copy of the book\");\n\n      // The user must have allowance\n      require(LIBToken.allowance(msg.sender, address(this)) >= rent, \"Not enough LIB Token allowance !\");\n      require(LIBToken.balanceOf(msg.sender) > 0, \"User balance is not enough to rent the book !\");\n\n      LIBToken.transferFrom(msg.sender, address(this), rent);\n\n      // Update books mapping\n      books[id].count -= 1;\n      books[id].borrowers.push(msg.sender);\n\n      // Update the booksStored array\n      for (uint256 i = 0; i < booksStored.length; i++) {\n          if (keccak256(abi.encodePacked((booksStored[i].id))) == keccak256(abi.encodePacked((id)))) {\n              // Get the storage pointer of the Book\n              Book storage currentBook = booksStored[i];\n              currentBook.count = books[id].count;\n              currentBook.borrowers = books[id].borrowers;\n          }\n      }\n\n      // Add the book to the userBooks mapping\n      userBooks[msg.sender][id] = true;\n      emit BookBorrowed(id);\n  }\n\n  function withdrawLibraryAmount() public onlyOwner {\n      uint256 libraryAmount = LIBToken.balanceOf(address(this));\n      LIBToken.approve(wrapperAddress, libraryAmount);\n\n      LIBWrapperContract.unwrap(libraryAmount);\n  }\n\n  function returnBook(string memory id, uint8 count) public {\n      require(books[id].exists, \"The user is trying to return a book which doesn't exist yet !\");\n      require(userBooks[msg.sender][id], \"The user haven't rented that book !\");\n\n      // Update the books mapping\n      books[id].count += count;\n\n      // Update the booksStored array\n      for (uint256 i = 0; i < booksStored.length; i++) {\n          if (keccak256(abi.encodePacked((booksStored[i].id))) == keccak256(abi.encodePacked((id)))) {\n              Book storage currentBook = booksStored[i];\n              currentBook.count = books[id].count;\n          }\n      }\n\n      // Remove the book from the userBooks mapping\n      userBooks[msg.sender][id] = false;\n\n      emit BookReturned(id);\n  }\n\n  // Flags\n  function isAvailable(string memory id) public view returns (bool) {\n    return books[id].count != 0;\n  }\n\n  function isRented(string memory id) public view returns (bool) {\n    return userBooks[msg.sender][id];\n  }\n\n  // Fallbacks\n  receive() external payable {}\n}",
  "sourcePath": "/Users/steriostaskudis/Desktop/Training path/books-solidity/contracts/BookLibrary.sol",
  "compiler": {
    "name": "solc",
    "version": "0.7.5+commit.eb77ed08.Emscripten.clang",
    "optimizer": false,
    "runs": 200
  },
  "schemaVersion": "2.3.5",
  "updatedAt": "2021-06-07T11:18:32.674Z"
}